:0400000002001132B7
:03000B000200C62A
:20006A00E4F508F509F50AF50B750CF3750D00750E36750F0175104C75110175122F7513CE
:20008A000175146375150175168E751701751849751906751A52751B01751C9B751D017528
:0800AA001EA4751F0102000EE7
:03000E000201B735
:2000B200758901758CFC758A67D28CA28C92A9A2A992AF22C0E0C0D0758CFC758A670508B7
:2000D200E4B5080C0509B50907050AB50A02050BD0D0D0E032850882850983850AF0E50B9D
:2000F20022AE82AF83758780759850758920EFC313CE13CEFF8E5C8F5D755E00755F0090F3
:200112007080E4F5F012059EAC82C3E49CFC8C8B8C8DD2ACA2AC92AFA2AF928E22C2ACA212
:20013200AC92AF22AE82AF837589018F8C8E8AD2A9A2A992AFA2AF928C2210990280FB222A
:20015200AF82C2AC8F9910990280FBA299B392AC22AD82AE83AFF08D828E838FF0120D8411
:20017200FC60188C820DBD00010EC007C006C005120152D005D006D00780DC221201639055
:200192000DE475F0801201632210980280FB85998222A298E433F58222AF82C007120152B1
:2001B200D0078F82221200B275B00075A000759000758000D2B1A2B192B01201D51201EF29
:2001D20080FB22AE0CAF0DC007C0061201E28008C006C00790258022D006D00722AE16AFCA
:2001F20017C007C0061201FC800BC006C007900DE775F08022D006D0077F00BF1E005045F9
:20021200900032C0071205F0755C00900DC075F0801202DCD0077527C275280D752980EF4D
:2002320090025893F52B752A01900DBE75F080C0071204CC755C01900DC075F0801202DC82
:06025200D0070F80B62268
:200DA4000000000100020003000400050006000701000101010201030104010501060107EF
:200DC4000200020102020203020402050206020703000301030203030304030503060307AF
:030DE4000D0A00F5
:1E025800000103070F1F3F7FFF7F3F1F0F07030180C0E0F0F8FCFEFFFEFCF8F0E0C018
:0D0DE70048656C6C6F20576F726C642100C2
:20027600FB7A20E4FCFDFEFFE5822582F582E58333F583E5F033F5F0EB33FB4017DAE980C1
:2002960042E5822582F582E58333F583E5F033F5F0EB33FBEC33FCED33FDEE33FEEF33FFF0
:2002B600EC955CED955DEE955EEF955F4013EC955CFCED955DFDEE955EFEEF955FFF43821A
:0502D60001DABEEB227D
:06004000E478FFF6D8FD94
:2002DB0022AD82AE83AFF0120D8470038580218D828E838FF0120D84FCBC01038590218DE5
:2002FB00828E838FF0120D84FCBC020385A0218D828E838FF0120D84FCBC030385B021E5F0
:20031B005C602574012DFAE43EFB8F048A828B838CF0120D84FA8AF005F07401800225E0F7
:20033B00D5F0FBFA4221802474012DFAE43EFB8F048A828B838CF0120D84FA8AF005F0747F
:20035B0001800225E0D5F0FBF4FA52218D828E838FF0120D8470038521808D828E838FF05F
:20037B00120D84FCBC01038521908D828E838FF0120D84FCBC02038521A08D828E838FF0E9
:20039B00120D84FDBD03038521B022AD82AE83AFF0120D8470038580228D828E838FF0127A
:2003BB000D84FCBC01038590228D828E838FF0120D84FCBC020385A0228D828E838FF012A7
:2003DB000D84FCBC030385B0220DBD00010E8D828E838FF0120D84FD8DF005F0E522800249
:2003FB00C313D5F0FB5401F58222AD82AE83AFF07C007B00BB080040030204C9755C01853C
:20041B0023828524838525F0C007C006C005C004C0031202DCD003D004D005D006D007E57F
:20043B0026702F8D828E838FF0C007C006C005C004C0031203A6E582D003D004D005D006F0
:20045B00D0078BF005F0800225E0D5F0FBFA420480358D828E838FF0C007C006C005C00449
:20047B00C0031203A6AA82D003D004D005D006D0078B017407C399F989F005F0EA80022533
:20049B00E0D5F0FBF94204755C008523828524838525F0C007C006C005C004C0031202DCD8
:2004BB00D003D004D005D006D0070B02040F8C8222AD82AE83AFF07C00BC0800400302051F
:2004DB009DE52A70448CF005F07A017B008006EA2AFAEB33FBD5F0F7A82B7900E85202E960
:2004FB005203EA4BB40100B39200E433F55C8D828E838FF0C007C006C005C0041202DCD080
:20051B0004D005D006D00780477407C39CFB8BF005F07B017A008006EB2BFBEA33FAD5F0C5
:20053B00F7A82B7900E85203E95202EB4AB40100B39200E433F55C8D828E838FF0C007C026
:20055B0006C005C0041202DCD004D005D006D007755C018527828528838529F0C007C00650
:20057B00C005C0041202DC755C008527828528838529F01202DCD004D005D006D0070C02C6
:03059B0004D42263
:20001E007900E94400601B7A00900DFF780175A000E493F2A308B8000205A0D9F4DAF2757C
:02003E00A0FF21
:200046007800E84400600A790175A000E4F309D8FC7800E84400600C7900900001E4F0A3B8
:04006600D8FCD9FAEF
:20059E00FBC2D530E715D2D5E4C39582F582E49583F583E495F0F5F0E49BFBE55F30E717F5
:2005BE00B2D5E4C3955CF55CE4955DF55DE4955EF55EE4955FF55FEB12027630D513FBE4C3
:1205DE00C39582F582E49583F583E495F0F5F0E49B2257
:2005F000AE82AF83EE4F60167C767D00EC4D60071CBCFF011D80F51EBEFF011F80E622AE2C
:1106100082AF838E048F051EBEFF011FEC4D70F32246
:20062100C05B85815B7E008E831201ABD05B2285823D85833E85F03FE4F53AF53BF53C856C
:200641002C4090062102070AC05BE581F55B24FBFF8F40E4F53AF53BF53CE55B24FBF88654
:100661003D08863E08863F90062112070AD05B228C
:20067100AF82C030C031C03212067E8007C02EC02F8F82221581158115810538E4B5380266
:20069100053922AF8274302FFF24C6500B74072FFFE52D60034307208F82020671E582FF29
:2006B100C4540FF582C007120694D007740F5FF58202069485825CAB33AC34AD35AE36AABB
:2006D10037755E208A07EF2FF55DEE235401455DFAEB2BFBEC33FCED33FDEE33FEC3EA9532
:2006F1005C4008EAC3955CFA430301D55ED68B338C348D358E368A372285822E85832F8585
:200711003A30853B31853C32E4F538F539AD3DAE3EAF3F8D828E838FF0120D84FC74012D97
:20073100F53DE43EF53E8F3FECFF7003020D48BF25028003020D40E4F541F542F543F54424
:20075100F545F546F547F548F54AF557F558754BFF754CFF853D51853E52853F53855182AC
:200771008552838553F0120D84F554A385825185835285513D85523E85533F7425B554081C
:20079100855482120671808574D025545068E55424C6406274FFB54B36B54C3385575C858B
:2007B100585D90000A120D67858255858356AA547E00EA2555FAEE3556FEEA24D0F557EE30
:2007D10034FFF558E55745587093754201808E854B5C854C5D90000A120D67AE82AB83AA64
:2007F100547D00EA2EFEED3BFBEE24D0F54BEB34FFF54C02076E742EB5541574FFB54B05AE
:20081100B54C02800302076EE4F54BF54C02076E749F2554500EE554248540085354DF75DF
:200831002D018003752D007420B554030208D4742BB554030208CE742DB5540280797442F8
:20085100B554030208DA7443B554030208E67444B55403020A6A7446B55403020A8174489B
:20087100B5540302076E7449B55403020A6A744AB5540302076E744CB554028052744FB54F
:200891005403020A727450B554030209FF7453B5540280627454B5540302076E7455B554C7
:2008B10003020A777458B55403020A7C745AB5540302076E020A8675410102076E75430177
:2008D10002076E75440102076E75460102076E75470102076EE546600AE54014F9894087E1
:2008F10006800BE54024FEFB8B408B0187068E82120671020A94E54024FDFE8E408E0187CF
:200911000209870309870619198A338B348E358A828B838EF0120D4F85825185835274FFFF
:20093100B54B09B54C0685514B85524CE5417037C3E5519557E5529558502CE557C395511B
:20095100F555E5589552F556AA55AE56155574FFB555021556EA4E600875822012067180B6
:20097100E7855557855658AB4BAE4C8533828534838535F0120D84FA8A4F6034C3E49B744B
:20099100808EF063F08095F050261BBBFF011E854F82C006C003120671D003D006AA33ACEC
:2009B10034AD350ABA00010C8A338C348D3580BBE5417003020A94C3E5519557E552955883
:2009D1004003020A94E557C39551F555E5589552F556AA55AE56155574FFB555021556EA44
:2009F1004E7003020A8E75822012067180E4E54024FDFE8E408E018702098703098706191B
:200A1100198A338B348E35AE35BE800040047B438014BE600040047B50800BBE40004004BC
:200A31007B4980027B588B82C00312067175823A120671758230120671758278120671D001
:200A510003BB4902800BBB500280068534821206AE8533821206AE802A754501754A0A80AF
:200A710022754A08801D754A0A8018754A108013754801800E855482120671800685555735
:200A9100855658E5486060E54024FCFE8E408E01875709875809875909875A1919198557C5
:200AB10033855834855935855A367533F475340D7535808533578534588535597401255719
:200AD100FAE43558FBAE598A338B348E358557828558838559F0120D84FEFB700302071E97
:200AF1008B8212067180CCE54A700302071EE546602BE54014F9894087068E027B007D0074
:200B11007E008A338B348D358E36E5457064AA33FBFDFE8A338B348D358E368055E5476010
:200B310021E54024FCFE8E408E0187020987030987050987061919198A338B348D358E364F
:200B51008030E54024FEFE8E408E01870309870619EEFA3395E0FDFE8B338A348D358E366C
:200B7100E545700EAA33AB34FDFE8A338B348D358E36E5456023E53630E71BC3E49533FB9F
:200B9100E49534FCE49535FDE49536FE8B338C348D358E36800375450075490179657D00E8
:200BB1007E00753700854A82C006C005C0011206C5D001D005D006E549700BE537C4FCE798
:200BD100FB4CF7198002A7370DBD00010EE549B40100E433F549E53345344535453670C284
:200BF10089508D4D8E4EE55745587005755701F558E542702DE5417029AA57AB58AC4D0C61
:200C11007E00C3EC9AEE9B5015758220C003C002120671D002D0031ABAFF011B80DF8A5715
:200C31008B58E545601175822D120671155774FFB557021558802EE54D454E6028E543609B
:200C51001175822B120671155774FFB5570215588013E544600F758220120671155774FFC3
:200C7100B557021558E5417033AD57AE588D038E041DBDFF011EC3E54D9BE54E9C503EE529
:200C91004260067B307C0080047B207C008B82C006C005120671D005D00680D1C3E54D9532
:200CB10057E54E9558500FE557C3954DF557E558954EF558800BE4F557F55880048D578EB5
:200CD10058A950AD4DAE4E8D028E041DBDFF011EEA4C6030E549B40100E433F549700A0922
:200CF100E7C4540FFC8C3780078704740F5CF537853782C006C005C001120694D001D0051D
:200D1100D00680C3E541700302071EAD57AE588D038E041DBDFF011EEB4C700302071E757F
:1E0D31008220C006C005120671D005D00680E08F8212067102071E8538828539832280
:0B0DF4003C4E4F20464C4F41543E0047
:180D4F00AA82AB83120D846003A380F8C3E5829AF582E5839BF5832239
:1D0D6700E582855CF0A4C582C0F0855DF0A4D0F025F0C583855CF0A42583F5832252
:0D001100758165120DA0E582600302000EEE
:1C0D840020F71430F6148883A88220F507E6A88375830022E280F7E49322E0227E
:040DA0007582002236
:00000001FF
